:100000002AC0000042C0000040C000003EC0000006
:100010003CC000003AC0000038C0000036C00000FC
:1000200034C0000032C0000030C000002EC000000C
:100030002CC000002AC0000028C0000026C000001C
:1000400024C0000022C0000020C000004DC00000FD
:100050001CC000004A0011241FBECFE5D4E0DEBF63
:10006000CDBF10E0A0E6B0E001C01D92AF3BB107EC
:10007000E1F710E0C6E5D0E003C02297FE0165D0AD
:10008000C435D107D1F729D064C0BACF0000089594
:100090000000089580E690E0F9CF000008958E31C9
:1000A000D8F4909162009E31B8F49091BE00E3E6DE
:1000B000F0E0E90FF11D80838091BE008F5F809397
:1000C000BE008091BE008E3111F41092BE0080916E
:1000D00062008F5F80936200089580E690E0D8DF31
:1000E000DCDF80E090E008951F920F920FB60F9230
:1000F00011242F933F934F935F936F937F938F932D
:100100009F93AF93BF93EF93FF93809161008F5FB5
:100110008093610080916100843620F081E0BFDF30
:1001200010926100FF91EF91BF91AF919F918F91DC
:100130007F916F915F914F913F912F910F900FBEE3
:100140000F901F901895EE0FFF1F0590F491E02D72
:060150000994F894FFCFB2
:00000001FF
