:100000000C942A000C943C000C943C000C943C0092
:100010000C943C000C943C000C943C000C943C0070
:100020000C943C000C943C000C9494010C943C0007
:100030000C943C000C943C000C943C000C943C0050
:100040000C943C000C943C000C943C000C943C0040
:100050000C943C0011241FBECFE5D8E0DEBFCDBF1D
:1000600010E0A0E6B0E001C01D92A03DB107E1F7AD
:100070000E9460010C94CA010C940000DF93CF939E
:10008000CDB7DEB7109280001092BD0010926100D3
:10009000CF91DF910895DF93CF9300D00F92CDB72A
:1000A000DEB789837B836A8389818E3160F489819D
:1000B000882F90E0880F991F8F579F4F2A813B818F
:1000C000FC01318320830F900F900F90CF91DF912F
:1000D0000895DF93CF930F92CDB7DEB789838981DF
:1000E0008E3150F48981882F90E0880F991F8F57A7
:1000F0009F4FFC01118210820F90CF91DF910895E4
:10010000DF93CF930F92CDB7DEB7898389818E318C
:10011000E8F4809161008E31C8F48091BD00882F91
:1001200090E08E599F4F2981FC0120838091BD0072
:100130008F5F8093BD008091BD008E3111F41092CD
:10014000BD00809161008F5F809361000F90CF911F
:10015000DF910895DF93CF930F92CDB7DEB78091F3
:100160006100882389F180918000882F90E08E596A
:100170009F4FFC0180818983809161008150809331
:100180006100809180008F5F80938000809180006B
:100190008E3111F4109280008981882F90E0880FB1
:1001A000991F8F579F4FFC0180819181009761F0CB
:1001B0008981882F90E0880F991F8F579F4FFC01EE
:1001C00080819181FC0109950F90CF91DF91089575
:1001D000DF93CF9300D000D000D0CDB7DEB79A83A5
:1001E00089836B835D834C832E8380E026960FB6D4
:1001F000F894DEBF0FBECDBFCF91DF910895DF939E
:10020000CF93CDB7DEB78BE390E067E046EF5FEFCB
:1002100020E00E94E8008093C7008BE390E066E056
:100220004AEB5FEF20E00E94E8008093C8008BE378
:1002300090E065E048E750E021E00E94E80080930C
:10024000C9008BE390E064E04EE75FEF20E00E949E
:10025000E8008093CA008BE390E063E044E75FEF3F
:1002600020E00E94E8008093CB008BE390E062E006
:100270004EEC5FEF21E00E94E8008093CC0088E321
:1002800090E064E042E95FEF20E00E94E8008093A4
:10029000CD0088E390E065E04EE25FEF20E00E9451
:1002A000E8008093CE0088E390E066E048ED5FEFE1
:1002B00021E00E94E8008093CF00CF91DF91089564
:1002C000DF93CF93CDB7DEB70E943E000E946D0151
:1002D00080E090E0CF91DF910895DF93CF93CDB789
:1002E000DEB783E590E02DE0FC01208382E590E01D
:1002F000FC0110828CE590E02DE7FC01208389E56C
:1003000090E029E530E0F90120812260FC012083A2
:1003100088E590E028E530E0F90120812260FC01C9
:100320002083CF91DF9108951F920F920FB60F9205
:1003300011242F933F934F935F936F937F938F93EA
:100340009F93AF93BF93EF93FF93DF93CF93CDB77B
:10035000DEB7809160008F5F8093600080916000C5
:10036000843628F081E00E94800010926000CF91D6
:10037000DF91FF91EF91BF91AF919F918F917F910D
:100380006F915F914F913F912F910F900FBE0F9002
:080390001F901895F894FFCFAF
:00000001FF
