:100000000C942A000C943C000C943C000C943C0092
:100010000C943C000C943C000C943C000C943C0070
:100020000C943C000C943C000C94C8000C943C00D4
:100030000C943C000C943C000C943C000C943C0050
:100040000C943C000C943C000C943C000C943C0040
:100050000C943C0011241FBECFE5D8E0DEBFCDBF1D
:1000600010E0A0E6B0E001C01D92A03DB107E1F7AD
:100070000E94B5000C94F8000C94000010928000CF
:100080001092BD001092610008958E3140F4E82F67
:10009000F0E0EE0FFF1FEF57FF4F7183608308956D
:1000A0008E3140F4E82FF0E0EE0FFF1FEF57FF4FC7
:1000B0001182108208958E31D0F4909161009E31AA
:1000C000B0F4E091BD00F0E0EE59FF4F80838091E5
:1000D000BD008F5F8093BD008091BD008E3111F413
:1000E0001092BD00809161008F5F80936100089540
:1000F00080916100882319F1E0918000F0E0EE59D1
:10010000FF4FE08180916100815080936100809178
:1001100080008F5F80938000809180008E3111F489
:1001200010928000F0E0EE0FFF1FEF57FF4F80812D
:100130009181009721F00190F081E02D09950895BB
:1001400080E008951092C7001092C8001092C90074
:100150001092CA001092CB001092CC001092CD00E9
:100160001092CE001092CF0008950E943E000E948F
:10017000BC0080E090E008958DE083BF12BE8DE763
:100180008CBF89B7826089BF88B7826088BF0895B5
:100190001F920F920FB60F9211242F933F934F93FC
:1001A0005F936F937F938F939F93AF93BF93EF93DF
:1001B000FF93809160008F5F80936000809160006A
:1001C000843628F081E00E945B0010926000FF916D
:1001D000EF91BF91AF919F918F917F916F915F91BF
:1001E0004F913F912F910F900FBE0F901F90189538
:0401F000F894FFCFB1
:00000001FF
