:100000002AC0000042C0000040C000003EC0000006
:100010003CC000003AC0000038C0000036C00000FC
:1000200034C0000032C0000030C000002EC000000C
:100030002CC000002AC0000028C0000026C000001C
:1000400024C0000022C0000020C0000049C0000001
:100050001CC00000480011241FBECFE5D4E0DEBF65
:10006000CDBF10E0A0E6B0E001C01D92AF3BB107EC
:10007000E1F710E0C6E5D0E003C02297FE0161D0B1
:10008000C435D107D1F725D060C0BACF000008959C
:1000900000000895000008958E31D0F49091620020
:1000A0009E31B0F4E091BE00F0E0ED59FF4F808347
:1000B0008091BE008F5F8093BE008091BE008E3124
:1000C00011F41092BE00809162008F5F80936200F5
:1000D000089580E690E0DADFDDDF80E090E00895CB
:1000E0001F920F920FB60F9211242F933F934F93AD
:1000F0005F936F937F938F939F93AF93BF93EF9390
:10010000FF93809161008F5F809361008091610017
:10011000843620F081E0C0DF10926100FF91EF9102
:10012000BF91AF919F918F917F916F915F914F910F
:100130003F912F910F900FBE0F901F901895EE0FCB
:0E014000FF1F0590F491E02D0994F894FFCF75
:00000001FF
